:100000000C946E010C9496010C9496010C9496013C
:100010000C9496010C9496010C9496010C94960104
:100020000C9496010C9496010C943A080C94C10817
:100030000C9496010C9496010C9496010C949601E4
:100040000C9496010C9496010C9496010C949601D4
:100050000C9496010C9496010C9496010C94B605A0
:100060000C9496010C9496010C9496010C949601B4
:100070000C9496010C9496010C9496010C949601A4
:100080000C9496010C9496010C9496010C94960194
:100090000C9496010C9496010C9496010C94960184
:1000A0000C9496010C9496010C94960100000000AB
:1000B000240027002A002D00300000000000250049
:1000C00028002B002E003100000000002300260035
:1000D00029002C002F000404040404030405020278
:1000E00002020403020202020606060606060404D1
:1000F00002020204040802011040804010204080E7
:10010000408008020401804020100201108010206D
:1001100040400000000200080E0000030401000B34
:100120000000070605040100080A0B0C0D09080B66
:1001300000020202010009040000010202000005A1
:1001400024001001052401010104240206052406EF
:1001500000010705810310004009040100020A00A4
:10016000000007050202400000070583024000006E
:1001700004030904220355005300420020004900F3
:100180004F00200042006F006100720064002000F8
:10019000200020002000180353007000610072004E
:1001A0006B00460075006E00200020002000120148
:1001B0000002000000404F1B0492000101020001F8
:1001C00012010002020000404F1B049200010102D4
:1001D000000100C18081C105010902A1010901A13D
:1001E00000850105091901290315002501950375ED
:1001F0000181029501750581030501093009310965
:10020000381581257F750895038106C0C005010951
:1002100006A1018502050719E029E71500250175EA
:1002200001950881029501750881039506750815E9
:100230000025650507190029658100C00904020031
:1002400001030000000921010100012265000705EA
:10025000840340000100000000000000002A2B2859
:10026000000000000000000000000000000000008E
:1002700000000000002C9EB4A0A1A2A434A6A7A553
:10028000AE362D3738271E1F20212223242526B3E2
:1002900033B62EB7B89F8485868788898A8B8C8DE4
:1002A0008E8F909192939495969798999A9B9C9DF6
:1002B0002F3130A3AD350405060708090A0B0C0DD4
:1002C0000E0F101112131415161718191A1B1C1DD6
:1002D000AFB1B0B50000EB047607440A11241FBE8D
:1002E000CFEFDAE0DEBFCDBF11E0A0E0B1E0ECE29D
:1002F000F7E102C005900D92AA34B107D9F711E0D9
:10030000AAE4B1E001C01D92AB3BB107E1F712E0F6
:10031000CCEDD2E004C02297FE010E94900BC63DB6
:10032000D107C9F70E948D040C94940B0C94000023
:10033000EF92FF920F931F937C010EE811E0C8012A
:1003400065E40E947303C801B7014AE050E00E94CF
:100350005B041F910F91FF90EF900895FF920F9310
:100360001F93F82E992787FD9095815690408131F3
:10037000910518F081E090E030C06F33C1F0603437
:100380002CF4603371F0613331F50DC0693419F02C
:100390006F3409F502C060E001C061E00E944902CB
:1003A0001EC060E001C061E00E94E60218C00E9429
:1003B00019038C018EE891E06F2D0E947303012BCD
:1003C00019F460E071E002C062E071E08EE891E053
:1003D0000E947A0404C082E090E00E9498011F917C
:1003E0000F91FF9008950F931F938EE891E00E9464
:1003F000A1040297D4F18EE891E00E94C804182F5E
:100400008D3099F18A3089F181548A31E8F48EE88F
:1004100091E00E94C804082F173449F0163509F5F9
:100420008EE891E064E071E00E947A041EC08EE8DC
:1004300091E00E94A104892BD1F38EE891E00E9403
:10044000C804682F802F0AC0812F81568A3148F452
:100450008EE891E00E94C804682F812F0E94AE01AF
:1004600004C082E090E00E9498011F910F910895CE
:100470001F9310E0812F60E00E9449021F5F11313D
:10048000C9F78EE891E060E072EC0E94A0041F9131
:100490000895CF93DF93482F50E0CA018C509F4FAF
:1004A000FC0134914A525F4FFA018491882369F12B
:1004B00090E0880F991FFC01E455FF4FA591B4917E
:1004C000FC01E654FF4FC591D491662351F42FB738
:1004D000F8948C91932F909589238C93888189230C
:1004E0000BC0623061F42FB7F8948C91932F9095E4
:1004F00089238C938881832B88832FBF06C09FB765
:10050000F8948C91832B8C939FBFDF91CF910895AA
:100510008730C1F1883080F48330F9F0843030F4D2
:10052000813029F1823009F050C024C08430C9F0F4
:10053000863009F04AC022C08A3091F18B3030F405
:10054000883031F1893009F040C026C08C3091F1FB
:100550008C3060F18E30C9F533C0809180008F7788
:1005600003C0809180008F7D80938000089584B5C2
:100570008F7702C084B58F7D84BD08958091B000CF
:100580008F7703C08091B0008F7D8093B000089575
:10059000809190008F7707C0809190008F7D03C07D
:1005A00080919000877F8093900008958091C00093
:1005B0008F7703C08091C0008F7D8093C000089525
:1005C0008091C200877F8093C2000895FF920F93AD
:1005D0001F93F62E482F50E0CA018E5E9E4FFC01FD
:1005E0002491CA018C509F4FFC0114914A525F4FD5
:1005F000FA0104910023C9F0222319F0822F0E94EE
:100600008802E02FF0E0EE0FFF1FE654FF4FA591A8
:10061000B4919FB7F894FF2021F48C911095812319
:1006200002C08C91812B8C939FBF1F910F91FF90E3
:1006300008950F931F93482F50E0CA018E5E9E4F7E
:10064000FC012491CA018C509F4FFC0104914A5235
:100650005F4FFA011491112319F420E030E015C026
:10066000222319F0822F0E948802812F90E0880FA8
:10067000991F88539F4FFC01A591B4918C9120E064
:1006800030E0802311F021E030E0C9011F910F918B
:100690000895CF92DF92EF92FF920F931F93CF9323
:1006A000DF937C016B018A01C0E0D0E00FC0D6016E
:1006B0006D916D01D701ED91FC910190F081E02DDC
:1006C000C7010995C80FD91F015010400115110528
:1006D00071F7CE01DF91CF911F910F91FF90EF90B5
:1006E000DF90CF900895DC01ED91FC910190F081B5
:1006F000E02D09950895EF92FF920F931F938C01BF
:10070000DC01ED91FC910190F081E02D6DE0099507
:100710007C01D801ED91FC910190F081E02DC801A0
:100720006AE009959C012E0D3F1DC9011F910F9193
:10073000FF90EF900895CF93DF93EC016115710561
:1007400019F420E030E00FC0DB010D900020E9F744
:100750001197A61BB70BE881F9810280F381E02D88
:10076000AD0109959C01C901DF91CF9108954F9288
:100770005F927F928F929F92AF92BF92CF92DF92C1
:10078000EF92FF920F931F93DF93CF93CDB7DEB716
:10079000A1970FB6F894DEBF0FBECDBF2C01742E0B
:1007A000CB01223008F42AE019A231E2C32ED12C69
:1007B000CC0EDD1E822E9924AA24BB24672D752F12
:1007C000A50194010E946C0B79018A01C801B7014F
:1007D000A50194010E944D0B472D461B0894C108AA
:1007E000D1084A3014F4405D01C0495CF6014083F1
:1007F000E114F1040105110521F07E2C5F2DC801E3
:10080000DDCFC201B6010E949B03A1960FB6F894FA
:10081000DEBF0FBECDBFCF91DF911F910F91FF9033
:10082000EF90DF90CF90BF90AF909F908F907F9090
:100830005F904F900895CF92DF92EF92FF920F93C7
:100840001F93CF93DF93EC016A017B0121153105E2
:1008500041F4E881F9810190F081E02D642F099540
:100860001FC02A303105D1F477FF17C0E881F98124
:100870000190F081E02D6DE209958C014427552708
:10088000BA014C195D096E097F09CE012AE00E9468
:10089000B7039801280F391F04C02AE00E94B7034C
:1008A0009C01C901DF91CF911F910F91FF90EF90B3
:1008B000DF90CF900895CF92DF92EF92FF920F9347
:1008C0001F936C017B019A010027F7FC0095102F04
:1008D000B801A7010E941B048C01C6010E947B0382
:1008E000080F191FC8011F910F91FF90EF90DF9023
:1008F000CF900895EF92FF920F931F937C010E9477
:100900009B038C01C7010E947B03080F191FC801BC
:100910001F910F91FF90EF900895CF93DF930E9466
:1009200063068DEA91E00E9477070E943802C0E0DA
:10093000D0E00E94F3012097E1F30E940000F9CF7C
:10094000089520918A0130918B0180918C019091C2
:100950008D01281B390B2F733070C9010895209128
:100960008A0130918B0180918C0190918D01281723
:10097000390719F42FEF3FEF09C0E0918C01F09196
:100980008D01E65BFE4F8081282F30E0C90108957C
:1009900020918A0130918B0180918C0190918D0181
:1009A0002817390719F42FEF3FEF13C0E0918C019E
:1009B000F0918D01E65BFE4F208180918C0190913A
:1009C0008D0101968F73907090938D0180938C01AF
:1009D00030E0C9010895109291011092900188EEC3
:1009E00093E0A0E0B0E08093920190939301A093F4
:1009F0009401B09395018EE291E090938F018093E2
:100A00008E0108950F931F93DF93CF930F92CDB76D
:100A1000DEB78C01698380912701882369F083E028
:100A2000BE016F5F7F4F41E050E00E9495071816AE
:100A3000190614F49C0107C081E090E0F80193834B
:100A4000828320E030E0C9010F90CF91DF911F91A8
:100A50000F91089583E00E946C070895CF93DF9370
:100A600012C082E00E94F7062FEF8F3F9207C9F075
:100A7000E0918A01F0918B01E65BFE4F8083D09379
:100A80008B01C0938A01C0918A01D0918B0121967C
:100A9000CF73D07080918C0190918D01C817D907C8
:100AA00001F7DF91CF910895FC0180818E5F8083F3
:100AB00080E86EE271E042E450E00E941007089581
:100AC000FC0181819081913A59F4813209F04CC046
:100AD00080E060E271E047E050E00E94100742C011
:100AE000913209F041C0803239F480E291E067E050
:100AF00070E00E94540736C0823209F035C082810E
:100B0000809327018091200190912101A0912201E1
:100B1000B0912301805B9440A040B04019F58091D2
:100B2000270180FD12C087E797E790930108809323
:100B300000082BE088E190E00FB6F894A895809328
:100B400060000FBE209360000DC088E10FB6F894DE
:100B500080936000109260000FBEA895109201086B
:100B60001092000881E0089580E008951F920F928E
:100B70000FB60F9211242F933F934F935F936F9370
:100B80007F938F939F93AF93BF932091A001309158
:100B9000A1014091A2015091A3017091A401DA0139
:100BA000C9010296A11DB11D672F6A5F6D3730F034
:100BB0006D57DA01C9010396A11DB11D6093A4010F
:100BC0008093A0019093A101A093A201B093A301EF
:100BD00080919C0190919D01A0919E01B0919F01F7
:100BE0000196A11DB11D80939C0190939D01A0933E
:100BF0009E01B0939F01BF91AF919F918F917F9183
:100C00006F915F914F913F912F910F900FBE0F9079
:100C10001F9018959B01AC017FB7F89480919C01BF
:100C200090919D01A0919E01B0919F0166B5A89BF6
:100C300005C06F3F19F00196A11DB11D7FBFBA2FEE
:100C4000A92F982F8827860F911DA11DB11D63E044
:100C5000880F991FAA1FBB1F6A95D1F7BC012DC031
:100C6000FFB7F89480919C0190919D01A0919E0105
:100C7000B0919F01E6B5A89B05C0EF3F19F0019622
:100C8000A11DB11DFFBFBA2FA92F982F88278E0F46
:100C9000911DA11DB11DE3E0880F991FAA1FBB1F65
:100CA000EA95D1F7861B970B885E9340C8F22150D6
:100CB00030404040504068517C4F2115310541057E
:100CC000510571F60895789484B5826084BD84B529
:100CD000816084BD85B5826085BD85B5816085BD37
:100CE000EEE6F0E0808181608083E1E8F0E0108250
:100CF000808182608083808181608083E0E8F0E091
:100D0000808181608083E1EBF0E08081846080837A
:100D1000E0EBF0E0808181608083E1E9F0E08081B8
:100D200082608083808181608083E0E9F0E080815F
:100D300081608083E1ECF0E0808184608083808149
:100D400082608083808181608083E3ECF0E0808139
:100D500081608083E0ECF0E0808182608083E2EC5F
:100D6000F0E0808181608083EAE7F0E08081846048
:100D700080838081826080838081816080838081A4
:100D8000806880830895282F8091A7018823C1F06F
:100D900057FF1AC015C028989093A6018091F100C2
:100DA0008193E217F307B9F74115510539F08091A6
:100DB000F200882319F48BE68093E800AFBF02C0ED
:100DC0004FEF5FEFCA010895AFB7F89427702093F3
:100DD000E9008091F200282F30E0241735070CF449
:100DE000A901FB019B01240F311D94E6DACFDF93AB
:100DF000CF930F92CDB7DEB7BE016F5F7F4F41E05B
:100E000050E00E94C306019719F02FEF3FEF03C097
:100E10008981282F30E0C9010F90CF91DF9108958B
:100E2000FF920F931F93F82E142F052F4091AA01C4
:100E30005091AB01212F302FC901DC01FB016EEF76
:100E400029C0F7FE02C0949101C090812091A801B1
:100E50003091A90124173507ACF48091E800857022
:100E6000E1F38091E80082FF03C02FEF3FEF17C04E
:100E70009093F100C90101968F739070892B11F442
:100E80006093E8002F5F3F4F3093A9012093A801A2
:100E9000119731961097A9F6812F902F9C01C901C7
:100EA0001F910F91FF9008959C018091E80082FFAF
:100EB000FCCFF901260F311D03C08091F100819311
:100EC000E217F307D1F7289884E68093A6018BEF09
:100ED0008093E800CB0108958093E9008091F200AF
:100EE000882319F08AE38093E8000895089510920A
:100EF000A70181E08093D70080EA8093D80082E048
:100F000089BD09B400FEFDCF61E070E080E090E0B3
:100F10000E940A0680E98093D8008CE08093E2006A
:100F20001092E000559A209A08955F926F927F92F6
:100F30008F929F92AF92BF92CF92DF92EF92FF92E9
:100F40000F931F93CF93DF93E82E842E752E8091FD
:100F5000A701882371F18B01242F352FC901EC01E2
:100F60007AEFF72E67E0962E9E2050E4552E8E2DB8
:100F700090E040E2A42EB12CA822B9223AE3632EDD
:100F800020E4C22ED12CC822D92258C09FB7F89491
:100F90009092E9008091E80085FD02C020E004C045
:100FA0008091F200252D281B9FBF222361F4FA9423
:100FB00019F42FEF3FEF4DC061E070E080E090E06A
:100FC0000E940A063BC0822F90E0C817D9070CF494
:100FD0002C2FC21BD1094FB7F8949092E900A114AD
:100FE000B10421F406C01092F10021502223D9F758
:100FF00019C0E7FC03C0F801922F10C0C801322FBE
:1010000006C0FC010196E491E093F10031503323D6
:10101000C1F706C081918093F10091509923D1F7D7
:10102000020F111D8091E80085FF05C0209729F46B
:10103000C114D10411F06092E8004FBF209709F06D
:10104000A5CF5D9884E68093A501282D372DC90191
:101050009C01C901DF91CF911F910F91FF90EF90FB
:10106000DF90CF90BF90AF909F908F907F906F90C8
:101070005F9008951F920F920FB60F9211242F9335
:101080003F934F935F936F937F938F939F93AF9310
:10109000BF93EF93FF938091E1001092E100982FAE
:1010A00083FF0FC01092E90081E08093EB00109263
:1010B000EC0082E38093ED001092A70188E080931A
:1010C000F00092FF34C083E08093E9008091F20049
:1010D000882319F08AE38093E8008FB7F89492E0B0
:1010E0009093E9009091F2008FBF992321F08EE850
:1010F00091E00E942E058091A501882351F08091F6
:10110000A50181508093A5018091A501882309F450
:101110005D9A8091A601882351F08091A6018150AB
:101120008093A6018091A601882309F4289AFF9153
:10113000EF91BF91AF919F918F917F916F915F914F
:101140004F913F912F910F900FBE0F901F901895C8
:101150000F931F93DF93CF930F92CDB7DEB7198212
:101160008E010F5F1F4FC8010E945405C8010E94E5
:10117000410B898190E00F90CF91DF911F910F91EA
:1011800008951F920F920FB60F921124EF92FF92C3
:101190001F932F933F934F935F936F937F938F93FF
:1011A0009F93AF93BF93EF93FF93DF93CF93CDB70D
:1011B000DEB76197DEBFCDBF1092E9008091E800F5
:1011C00083FF0FC1FE0131969E01275F3F4F03C091
:1011D0008091F1008193E217F307D1F7289884E614
:1011E0008093A60182EF8093E800998197FF05C064
:1011F0008091E80080FFFCCF03C08EEF8093E80071
:10120000292F30E0C90180769070892B09F0C2C087
:101210008A81882329F41092F1001092F100D6C03F
:10122000813009F4D3C0833009F4D0C0853049F44B
:101230008091E80080FFFCCF8B8180688093E30081
:10124000C5C0863009F07CC01C81EF80F884123064
:10125000C1F51092E9001092A9011092A801109214
:10126000AB011092AA010E94A80899E0FE013996EC
:10127000DF01292F1D922A95E9F799871A8791E0B6
:101280009E8790E8988B9AEF998B2091A8013091D6
:10129000A901275F3F4F3C872B878D871092E9007C
:1012A0001092A9011092A801F092AB01E092AA015C
:1012B00080E0BF0149E050E00E9410070E94A808AA
:1012C00085C01092E9001092A9011092A801F09235
:1012D000AB01E092AA01123241F482E290E00E9456
:1012E000390B892B09F476C071C0113079F488E08C
:1012F000E816F10419F481E08093AC018091AC010F
:10130000882309F06BC0EEEAF1E013C0133009F056
:1013100061C08B81882319F4E0E7F1E00AC08230D4
:1013200019F4E4E7F1E005C0813009F053C0E6E9C3
:10133000F1E0449180E8BF0150E00E94100746C0F0
:10134000873009F447C0883021F481E08093F100B0
:101350003DC08930D9F523703070232BD9F5E3EDEA
:10136000F1E091E031E026E39093E9003093EB0067
:1013700084918093EC002093ED009F5F319695302F
:1013800099F78EE78093EA001092EA008B818093B0
:10139000A7011CC08F8198851092E9001092A901C5
:1013A0001092A8019093AB018093AA018D818823AC
:1013B00029F4CE0101960E94600506C0823051F4E6
:1013C000CE0101960E940A0A882321F08EEF8093B5
:1013D000E80007C081E28093EB0003C0E0ECF1E09D
:1013E000A8CF6196DEBFCDBFCF91DF91FF91EF9186
:1013F000BF91AF919F918F917F916F915F914F912D
:101400003F912F911F91FF90EF900F900FBE0F9083
:101410001F901895FC0191818081813A31F49130BF
:1014200089F080E0933089F40DC0813269F49B30FB
:1014300021F482818093280105C09A3029F48281A9
:101440008093290181E0089580E00895EF92FF9252
:101450000F931F938C01E62EDC01ED91FC9104802B
:10146000F581E02D0995F82ED801ED91FC910680CB
:10147000F781E02DC8016E2D09958F2D90E01F9109
:101480000F91FF90EF9008951092AE011092B2016B
:101490001092B10180E491E09093B0018093AF018C
:1014A0000895EF92FF920F931F93DF93CF930F92C4
:1014B000CDB7DEB789838B017A0184E0BE016F5F0F
:1014C0007F4F41E050E00E94950784E4B801A701F6
:1014D0000E9495070F90CF91DF911F910F91FF9080
:1014E000EF90089582E048E050E00E94510A08958C
:1014F000FC011682178210861186128613861482CA
:101500003496BF010E94720A0895DC01683810F019
:10151000685829C0E62FF0E067FF13C0E058F0409C
:1015200081E090E002C0880F991FEA95E2F780956C
:1015300014962C911497282314962C93149760E0FA
:1015400012C0EB5AFD4F6491662319F420E030E09D
:101550001DC067FF08C014968C9114978D7F149658
:101560008C9314976F77FD0190E0662321F08681BC
:10157000861709F416829F5F31969630B1F7CD0138
:101580001496BD010E94720A21E030E0C90108955D
:10159000CF93DF93DC01683810F0685825C0E62F40
:1015A000F0E067FF12C0E058F04081E090E002C038
:1015B000880F991FEA95E2F714962C911497282B1F
:1015C00014962C93149760E00FC0EB5AFD4F649172
:1015D0006623D9F167FF08C014968C911497826036
:1015E00014968C9314976F7716968C91169786178E
:1015F000A9F117968C911797861781F118968C91FF
:101600001897861759F119968C911997861731F109
:101610001A968C911A97861709F11B968C911B9735
:101620008617E1F0ED01E0E0F0E09E2F8E81882347
:1016300021F4EA0FFB1F668306C09F5F3196219657
:10164000E630F10591F7963049F481E090E0139689
:101650009C938E93129720E030E007C0CD01149642
:10166000BD010E94720A21E030E0C901DF91CF91F3
:10167000089580E867ED71E045E650E00E941007AC
:101680000895FC0180818F5F808380E86CE372E0C5
:1016900049E150E00E9410070895629FD001739FB6
:1016A000F001829FE00DF11D649FE00DF11D929FFE
:1016B000F00D839FF00D749FF00D659FF00D99273D
:1016C000729FB00DE11DF91F639FB00DE11DF91F61
:1016D000BD01CF0111240895A1E21A2EAA1BBB1B44
:1016E000FD010DC0AA1FBB1FEE1FFF1FA217B307EE
:1016F000E407F50720F0A21BB30BE40BF50B661F04
:10170000771F881F991F1A9469F7609570958095C7
:1017100090959B01AC01BD01CF010895EE0FFF1F15
:0C1720000590F491E02D0994F894FFCF9F
:10172C003000310041726475696E6F50726F4D6993
:10173C0063726F2F4750494F2056302E312E310097
:10174C0000E10000000000000101000000000205A3
:10175C004903A104C804AF042A052E0500000000AB
:0A176C00260A4903C80A850A780A14
:00000001FF
