:100000000C945D000C9485000C9485000C94850084
:100010000C9485000C9485000C9485000C9485004C
:100020000C9485000C9485000C9485000C9485003C
:100030000C9485000C9485000C9485000C9485002C
:100040000C94C4040C9485000C940F060C944B067D
:100050000C9485000C9485000C9485000C9485000C
:100060000C9485000C94850000000007000201003C
:100070000003040600000000000000000102040864
:100080001020408001020408102001020408102002
:10009000040404040404040402020202020203032E
:1000A0000303030300000000250028002B000000CC
:1000B0000000240027002A00000711241FBECFEFF4
:1000C000D8E0DEBFCDBF11E0A0E0B1E0E4E1F2E1B5
:1000D00002C005900D92A831B107D9F711E0A8E14F
:1000E000B1E001C01D92A33FB107E1F710E0CAEBF8
:1000F000D0E004C02297FE010E94AB07C83BD107A5
:10010000C9F70E9478070C9408090C9400000F931B
:100110001F93CF93DF9383E190E00E948507EC016A
:1001200023E049E064EB70E00E94370203E211E053
:10013000F801D183C083CE010E948102F801808141
:1001400091810E948E0283E190E00E948507EC017C
:1001500023E04AE061E070E00E94370205E211E02E
:10016000F801D183C083CE010E948102F801808111
:1001700091810E948E0240E05BE460E070E088E4E0
:1001800091E00E94860680E00E94A30490931D01E6
:1001900080931C01DF91CF911F910F91089580539F
:1001A0008A3030F08151863010F4865F089580E007
:1001B00008958F708A3010F0895C0895805D0895ED
:1001C00088E491E00E947305892B09F46DC088E4EE
:1001D00091E00E94A205803511F481E055C0909114
:1001E0002201943061F138F49230B1F000F5913091
:1001F00009F05AC009C09630A9F160F19730E9F1D1
:10020000983009F051C043C00E94CF008295807F92
:100210008093210182E038C00E94CF00209121010B
:1002200090E0820F911D8093210183E02DC00E94F8
:10023000CF008295807F8093200184E025C00E94BA
:10024000CF002091200190E0820F911D809320012A
:1002500085E01AC00E94CF008295807F80931F01A5
:1002600086E012C00E94CF0020911F0190E0820F13
:10027000911D80931F0187E007C00E94CF008295E7
:10028000807F80931E0188E0809322010DC00E9430
:10029000CF0020911E0190E0820F911D80931E01DE
:1002A0001092220181E0089580E008950F93CF938A
:1002B000DF9380E00E94A30490931B0180931A01B6
:1002C00020911C0130911D01AC01421B530B9A017E
:1002D00057FF03C0319521953109293031050CF4C0
:1002E0003FC020911801309119012F5F3F4F30938B
:1002F0001901209318012A30310594F11092190147
:1003000010921801892F0E94D900682F88E491E08B
:100310000E94D80580911A0190911B0124E09595C7
:1003200087952A95E1F70E94D900682F88E491E02B
:100330000E94D80580911A010E94D900682F88E494
:1003400091E00E94D8056AE088E491E00E94D80517
:1003500080911A0190911B0190931D0180931C01C3
:100360000E94E000882309F47EC0C0912101CF3FA4
:10037000B1F50FC000911E0120911F014091200195
:10038000BE0180912301909124010E94D403219603
:1003900002C0C0E0D0E080912301909124010E942E
:1003A0000604C817D90730F3C0E0D0E00EC00091B2
:1003B0001E0120911F0140912001BE018091250165
:1003C000909126010E94D40321968091250190915D
:1003D00026010E940604C817D90748F335C080914A
:1003E0002301909124010E9406042C2F30E028174D
:1003F000390778F46091210100911E0120911F01BD
:100400004091200170E080912301909124010E948D
:10041000D403C0912101D0E0809125019091260163
:100420000E940604C817D90778F460912101009151
:100430001E0120911F014091200170E08091250153
:10044000909126010E94D403809123019091240170
:100450000E948E028091250190912601DF91CF911B
:100460000F910C948E02DF91CF910F910895FF921E
:100470000F931F93CF93DF93EC01F22E7983688360
:100480008B01000F111F060F171F0A831B834C835C
:100490002B8750E0FA01E057FF4FE491F0E0EE0FB8
:1004A000FF1FEC55FF4F85919491888B998BFA0132
:1004B000E458FF4F44914A8BC8010E94AF079F83C5
:1004C0008E83009729F0A80160E070E00E94E608A2
:1004D000F0FE04C081E0888719860BC0F2FE06C0DA
:1004E00081E0888782E089871A8605C0188681E0C6
:1004F000898782E08A87DF91CF911F910F91FF90CA
:100500000895CF93DF93EC0161E08C810E94340465
:1005100060E08C81DF91CF910C946C04CF92DF92DC
:10052000EF92FF920F931F93CF93DF93CDB7DEB778
:1005300029970FB6F894DEBF0FBECDBF8C01DC014A
:1005400016968D919C911797892B09F41EC10E94D4
:100550000E05F801C484D584E684F7846C197D09FE
:100560008E099F09623371058105910580F3F89426
:10057000D801828193819A838983E680F780F7018D
:1005800081917F0189871B968C911B9750960D90C6
:10059000BC91A02D81FFBFC01D82AB32B10509F017
:1005A0005AC09BB1D80152968C91982B98879BB1D9
:1005B000809589238F838F818E83898587FF02C0F1
:1005C00088858E8358856F8149853E812D818981FB
:1005D0009A81F7015BB9262F3BB900C046FD252F54
:1005E0006BB900C05BB9362F2BB900C045FD352F64
:1005F0006BB900C05BB9262F3BB900C044FD252F65
:100600006BB900C05BB9362F2BB900C043FD352F45
:100610006BB900C05BB9262F3BB900C042FD252F46
:100620006BB900C05BB9362F2BB900C041FD352F27
:100630006BB900C05BB9262F3BB900C040FD252F28
:100640006BB901975BB9362F2BB9419147FD352F17
:100650006BB901F65CC0959709F08DC095B1D801D2
:1006600052968C91982B988795B1809589238F838A
:100670008F818E83898587FF02C088858E83588508
:100680006F8149853E812D8189819A81F70155B914
:10069000262F35B900C046FD252F65B900C055B9D4
:1006A000362F25B900C045FD352F65B900C055B9B5
:1006B000262F35B900C044FD252F65B900C055B9B6
:1006C000362F25B900C043FD352F65B900C055B997
:1006D000262F35B900C042FD252F65B900C055B998
:1006E000362F25B900C041FD352F65B900C055B979
:1006F000262F35B900C040FD252F65B9019755B9A2
:10070000362F25B9419147FD352F65B901F6498747
:100710003E832D832EC09C91F8018289982B988767
:100720009C91809589238F838F818C8388E08B8334
:1007300058856F8149853B812C8189819A81F70198
:100740005C9347FD252F2C93262F3A9531F0441FBB
:100750006C9300C000C000C0F3CF6C93000038E081
:100760004191019769F7F801B18BA08B49873B83D1
:100770002C839A83898378940E940E05D8011C9655
:100780006D937D938D939C931F9729960FB6F89444
:10079000DEBF0FBECDBFDF91CF911F910F91FF90B4
:1007A000EF90DF90CF9008950F931F93FC0180810D
:1007B00091816817790738F58581882361F0489F12
:1007C000A0011124452F289F90011124232F089F59
:1007D00080011124012FDB01AA0FBB1FA60FB71F39
:1007E000868197818A0F9B1F3085DC01A30FB11D85
:1007F0004C933185DC01A30FB11D2C932285FC01A4
:10080000E20FF11D00831F910F910895FC0180817B
:1008100091810895833069F028F48130A1F082300D
:1008200011F514C08630B1F08730C1F08430D9F4AE
:1008300004C0809180008F7703C0809180008F7DFD
:1008400080938000089584B58F7702C084B58F7D32
:1008500084BD08958091B0008F7703C08091B0006F
:100860008F7D8093B0000895CF93DF9390E0FC01DB
:10087000E458FF4F4491FC01E057FF4F84918823D7
:1008800041F190E0880F991FFC01E255FF4F25913F
:100890003491D9018C559F4FFC0185919491C82FBB
:1008A000D92F9FB7F8948C91611106C0409584238D
:1008B0008C938881842308C0623041F4242F2095D2
:1008C00082238C938881842B888302C0842B8C9311
:1008D0009FBFDF91CF9108950F931F93CF93DF9325
:1008E0001F92CDB7DEB7282F30E0F901E859FF4F4E
:1008F0008491F901E458FF4F1491F901E057FF4F3B
:1009000004910023D1F0882321F069830E940A0416
:100910006981E02FF0E0EE0FFF1FEC55FF4F85914E
:100920009491DC019FB7F8948C91611103C01095EC
:10093000812301C0812B8C939FBF0F90DF91CF91BA
:100940001F910F9108958E3008F08E50877020917E
:10095000060140E4249F90011124822B80937C00A7
:1009600080917A00806480937A0080917A0086FD7D
:10097000FCCF2091780030917900932F80E0AC017A
:10098000422B9A01C90108951F920F920FB60F9240
:1009900011242F933F938F939F93AF93BF93809195
:1009A0003F0190914001A0914101B09142013091ED
:1009B0004701232F2A5F2D3720F40296A11DB11D78
:1009C00005C0232F27570396A11DB11D2093470172
:1009D00080933F0190934001A0934101B093420165
:1009E0008091430190914401A0914501B09146014D
:1009F0000196A11DB11D8093430190934401A093E2
:100A00004501B0934601BF91AF919F918F913F9166
:100A10002F910F900FBE0F901F9018950F931F935B
:100A20009FB7F89400914301109144012091450132
:100A30003091460186B5A89B06C08F3F21F00F5F1D
:100A40001F4F2F4F3F4F9FBF322F212F102F0027B7
:100A5000080F111D211D311D43E0000F111F221F22
:100A6000331F4A95D1F7B801C9011F910F9108951D
:100A7000789484B5826084BD84B5816084BD85B579
:100A8000826085BD85B5816085BDEEE6F0E0808140
:100A900081608083E1E8F0E0108280818260808361
:100AA000808181608083E0E8F0E0808181608083E4
:100AB000E1EBF0E0808184608083E0EBF0E0808116
:100AC00081608083EAE7F0E08081846080838081B8
:100AD0008260808380818160808380818068808360
:100AE0001092C1000895FC0184859585FC01E05CAD
:100AF000FF4F20813181FC01EE5BFF4F80819181AE
:100B0000281B390B2F733327C9010895FC018485F5
:100B10009585FC01E05CFF4F40815181FC01EE5B5B
:100B2000FF4F208131814217530741F00190F0813E
:100B3000E02DE80FF91F208130E002C02FEF3FEFDA
:100B4000C9010895FC0184859585FC01E05CFF4F97
:100B500040815181FC01EE5BFF4F208131814217C2
:100B6000530781F0A081B181A80FB91F8C9120811A
:100B700031812F5F3F4F2F73332731832083282FFD
:100B800030E002C02FEF3FEFC9010895FC018685D8
:100B90009785FC01E05CFF4FDC01AE5BBF4F4081FD
:100BA00051812D913C91119742175307C1F7089538
:100BB000CF93DF93FC0186859785DC01A05CBF4F56
:100BC0002D913C9111972F5F3F4F2F733327EC01ED
:100BD000CE5BDF4F4881598124173507D9F30D903B
:100BE000BC91A02DA80FB91F6C93A685B785A05CFA
:100BF000BF4F11963C932E93A689B7892C9181E023
:100C000090E0058C02C0880F991F0A94E2F7282B08
:100C10002C9381E090E0DF91CF91089508951F9289
:100C20000F920FB60F9211242F933F934F938F93F0
:100C30009F93EF93FF934091C6008091EB019091B9
:100C4000EC0101968F7399272091ED013091EE010F
:100C50008217930759F0E091EB01F091EC01E55513
:100C6000FE4F40839093EC018093EB01FF91EF9155
:100C70009F918F914F913F912F910F900FBE0F90A9
:100C80001F90189588E491E00E947305892B11F05C
:100C90000C940E0608951F920F920FB60F92112416
:100CA0002F933F938F939F93EF93FF932091A701EF
:100CB0003091A8018091A9019091AA0128173907C4
:100CC00031F48091C1008F7D8093C10014C0E09108
:100CD000A901F091AA01E959FE4F20818091A90153
:100CE0009091AA0101968F7399279093AA018093FE
:100CF000A9012093C600FF91EF919F918F913F91A1
:100D00002F910F900FBE0F901F901895CF92DF92EA
:100D1000EF92FF92CF93DF93EC016A017B01EC89A4
:100D2000FD8981E090E00E8C02C0880F991F0A9423
:100D3000E2F7808360E874E88EE190E0A701960115
:100D40000E9487072150310941095109569547955D
:100D500037952795211580E1380798F0EC89FD89B2
:100D6000108260E472E48FE090E0A70196010E9497
:100D70008707215031094109510956954795379503
:100D80002795E889F9893083EA89FB892083EE89F0
:100D9000FF89408181E090E09C010A8C02C0220F13
:100DA000331F0A94E2F7422B4083EE89FF8940818A
:100DB0009C010B8C02C0220F331F0A94E2F7422BD6
:100DC0004083EE89FF8940819C010C8C02C0220F78
:100DD000331F0A94E2F7422B4083EE89FF8920817A
:100DE0000D8C02C0880F991F0A94E2F78095822328
:100DF0008083DF91CF91FF90EF90DF90CF900895A7
:100E000010924B0110924A0188EE93E0A0E0B0E00E
:100E100080934C0190934D01A0934E01B0934F01EC
:100E20008BE091E090934901809348018BEA91E037
:100E3000909355018093540187E691E09093570178
:100E40008093560185EC90E090935901809358016E
:100E500084EC90E090935B0180935A0180EC90E0E9
:100E600090935D0180935C0181EC90E090935F0131
:100E700080935E0186EC90E0909361018093600125
:100E800084E08093620183E08093630187E0809334
:100E9000640185E08093650181E080936601089597
:100EA000CF92DF92EF92FF920F931F93CF93DF9336
:100EB0006C01EB017A01E60EF71E00E010E00BC0BA
:100EC0006991D601ED91FC910190F081E02DC60170
:100ED0000995080F191FCE15DF0591F7C801DF919D
:100EE000CF911F910F91FF90EF90DF90CF900895D9
:100EF0000E9438050E948700C2E4D6E00E94560195
:100F00002097E1F30E944206F9CF0C94AF07A1E2CB
:100F10001A2EAA1BBB1BFD010DC0AA1FBB1FEE1F73
:100F2000FF1FA217B307E407F50720F0A21BB30BBE
:100F3000E40BF50B661F771F881F991F1A9469F73A
:100F400060957095809590959B01AC01BD01CF0196
:100F50000895EE0FFF1F0590F491E02D09940F9373
:100F60001F93CF93DF938230910510F482E090E0DD
:100F7000E091F101F091F20120E030E0C0E0D0E03A
:100F800023C04081518148175907A8F048175907D5
:100F900061F482819381209719F09B838A832EC00C
:100FA0009093F2018093F10129C02115310529F0B8
:100FB0004217530710F0A90102C0BE01DF010281F0
:100FC0001381EF019A01F8013097D9F62115310507
:100FD00009F1281B390B2430310590F412968D91BC
:100FE0009C9113976115710521F0FB019383828316
:100FF00004C09093F2018093F101FD01329644C048
:10100000FD01E20FF31F81939193225031092D933B
:101010003C933AC02091EF013091F001232B41F431
:1010200020910201309103013093F0012093EF01F0
:1010300020910001309101012115310541F42DB7B6
:101040003EB74091040150910501241B350BE091FE
:10105000EF01F091F001E217F307A0F42E1B3F0B14
:101060002817390778F0AC014E5F5F4F241735071A
:1010700048F04E0F5F1F5093F0014093EF018193B2
:10108000919302C0E0E0F0E0CF01DF91CF911F919A
:101090000F910895EF92FF920F931F93CF93DF93D9
:1010A000009709F48EC0DC01129713961C921E92D1
:1010B0001297E090F101F090F201E114F10489F44B
:1010C0002D913C911197280F391F8091EF0190913C
:1010D000F0018217930789F5B093F001A093EF0117
:1010E00070C0E70120E030E001C0EA01CA17DB0769
:1010F00038F44A815B819E0141155105B1F722C048
:10110000AC0142505109FA01D383C283008111819D
:10111000BC01600F711F6C177D0761F468817981D4
:10112000600F711F6E5F7F4F718360836A817B8167
:10113000738362832115310529F4B093F201A093E2
:10114000F1013FC0F901B383A283E90149915991AB
:10115000C40FD51FAC17BD0771F4DC019E918E91B1
:10116000840F951F02969183808312968D919C9196
:10117000139793838283A0E0B0E002C0D7017C0183
:10118000F701828193810097C9F7C70102962081F8
:101190003181820F931F2091EF013091F0012817C8
:1011A000390779F4109729F41092F2011092F101A5
:1011B00004C013961C921E921297F092F001E092D6
:1011C000EF01CDB7DEB7E6E00C94F908DC0101C011
:1011D0006D9341505040E0F708952A883988488837
:1011E0005F846E847D848C849B84AA84B984C88443
:1011F000DF80EE80FD800C811B81AA81B981CE0F3A
:10120000D11D0FB6F894DEBF0FBECDBFED0108951E
:04121000F894FFCF80
:101214000000F30120000100000000D8055007730E
:0812240005A2058605C60500C0
:00000001FF
